:020000040000FA
:04000000A4EF28F051
:024B560012004B
:104B59000004081020080ED56ED58E1200F2A4B8F4
:104B6900EF25F0BAEF25F0B3EF25F01200949294F7
:104B790094949C030ECA12CA840C0EBD120C0EBA70
:104B8900121200000E816E000E836E000E846E1FDD
:104B99000E936E000E956E000E966E0F0EC16E1579
:104BA900EC27F01200D8900134036E0234046E032E
:104BB9001E041E0E0E035E000E045A0450D76E0327
:104BC900C0D6FFF294120001500302F3CF05F0F4AE
:104BD900CF06F001500402F350062602500302F3F7
:104BE90050062605C001F006C002F01200480E0169
:104BF9006EE80E026E010E036E000E046E0FC00504
:104C0900F010C006F0076A086AA0EC2DF00104CB89
:104C19006E12001AEF26F0030E036E980EE82EFEB0
:104C2900D7032EFCD70106D8A0020601500210D8DE
:104C3900A421EF26F023EF26F010EF26F012000151
:104C4900C003F002C004F02CEF26F0014A022A0149
:104C5900C0D9FF02C0DAFFDF50D8A436EF26F038FA
:104C6900EF26F02AEF26F00350015C016E04500292
:104C790058026E1200320A320A320A320519053216
:104C890005320519053232320A320A320A32051959
:104C990005320532051905323264051905190A6408
:104CA90005320519020A020A0264FA14BE67EF26E0
:104CB900F0145006E11304D8B065EF26F067EF262B
:104CC900F075EF26F013C015F014C016F0151E1676
:104CD9001E154A162A15C013F016C014F079EF26CE
:104CE900F013C013F014C014F01200000E106E007F
:104CF9000E0F6E8BEF26F00EC001F0026A0CC00396
:104D0900F00DC004F0ECEC2AF00F4A102A0F500AFB
:104D190024D96E10500B20DA6EDF500E6E0E50D86B
:104D2900A499EF26F09BEF26F080EF26F0120002FF
:104D39006E848402C001F0F00E011683500F0B013E
:104D490010836E8482060EE82EFED700D08492422C
:104D59000EE82EFED700D002C001F0013AF00E0194
:104D69001683500F0B0110836E8482060EE82EFE07
:104D7900D700D08492420EE82EFED700D0120081CF
:104D8900B0C9EF26F0CBEF26F0D6EF26F0014A02A4
:104D99002A81A0D2EF26F0D4EF26F0CDEF26F0E756
:104DA900EF26F081B4DBEF26F0DDEF26F0E7EF2602
:104DB900F00106D8A0020681A4E5EF26F0E7EF2668
:104DC900F0E0EF26F001C001F002C002F012005E2F
:104DD9000E0001606F000E616F5AC062F05BC06324
:104DE900F0000E656F000E646F000E676F000E66AF
:104DF9006F620E526E000E536E5CC054F05DC0556A
:104E0900F0600E566E000E576E9BEC27F0000164A1
:104E1900515A24D96E65515B20DA6E000EDF6E128D
:104E2900000D0E036EFC0EE82EFED7032EFCD730C4
:104E39000E6DEC27F00D0E036EFC0EE82EFED70367
:104E49002EFCD7300E6DEC27F0420EE82EFED7006F
:104E5900D0300E6DEC27F0020E6DEC27F0280E6DA8
:104E6900EC27F0060E6DEC27F00C0E6DEC27F00127
:104E79000E6DEC27F012000A6E0A50CB02F3CF0B2D
:104E8900F0F4CF0CF00BC001F00CC002F0000E04DE
:104E99006E190E036E6AEC28F001C00BF002C00C0B
:104EA900F0FF0E0B16030E0C160BC008F00CC00910
:104EB900F0D89009320832D890093208320850BB2C
:104EC9006E0BC008F0030E08160838F00BBA121260
:104ED90000026E849402C001F0F00E011683500F97
:104EE9000B0110836E8482060EE82EFED700D08453
:104EF900920D0E016EFC0EE82EFED7012EFCD70294
:104F0900C001F0013AF00E011683500F0B01108316
:104F19006E8482060EE82EFED700D084920D0E0113
:104F29006EFC0EE82EFED7012EFCD7120054C05895
:104F3900F055C059F0000E0001DE6F000EDD6FB9AB
:104F4900EF27F052C040F053C041F0580E426E00B6
:104F59000E436E56C044F057C045F00AEC38F04095
:104F6900500001DD274150DE2358C0F6FF59C0F734
:104F7900FF0800F5500009D8A4C5EF27F0C7EF27AF
:104F8900F0A6EF27F0DDC052F0DEC053F0120003A7
:104F9900500410D8B4D3EF27F0D5EF27F0F9EF2755
:104FA900F0010E056EDDEF27F0D8900336043605C3
:104FB9002A04AEE2EF27F0E4EF27F0D9EF27F00358
:104FC90050015C04500258D8A0EDEF27F0EFEF270D
:104FD900F0F3EF27F00350015E0450025AD8900411
:104FE900320332052EE4EF27F001C001F002C002BE
:104FF900F012000001786FBBEC25F0AFEC25F0133F
:105009000E106E880E0F6EFBEC25F00001785140F2
:10501900EC27F0680E5A6E000E5B6EC20E5C6E7C59
:105029000E5D6E78C05EF05F6AECEC26F0680E07E4
:105039006E000E086E010EE5EC28F081B227EF280C
:10504900F029EF28F022EF28F0000E40EC27F0813C
:10505900A231EF28F033EF28F02CEF28F012000AE4
:105069006E010ECB24016E026A000E02220AC003F1
:10507900F0046AE8EC25F001C00BF002C00CF00B5B
:10508900C001F00CC002F0000E046E190E036E6A26
:10509900EC28F001C00BF002C00CF0FF0E0B160358
:1050A9000E0C160BC008F00CC009F0D89009320894
:1050B90032D890093208320850BE6E0BC008F0038E
:1050C9000E08160838F00BBD121200000E066E000D
:1050D9000E056E03500410D8B475EF28F077EF2849
:1050E900F09FEF28F0010E076E7FEF28F0D89003AC
:1050F900360436072A04AE84EF28F086EF28F07BC1
:10510900EF28F0D890053606360350015C045002AA
:1051190058D8A092EF28F094EF28F099EF28F003DF
:1051290050015E0450025A0580D8900432033207B8
:105139002E86EF28F005C001F006C002F012004DDE
:105149000EF66E580EF76E000EF86E02EE00F010B5
:10515900EEE3F00900F5CFEEFFE550E150FAE17E0C
:105169000EF66E4C0EF76E000EF86E01EEA4F010FE
:10517900EE36F00900F5CFEEFFE550E150FAE159BE
:105189000EF66E4B0EF76E000EF86E00EEE5F0109F
:10519900EE05F00900F5CFEEFFE550E150FAE10127
:1051A900EEDAF0200EEE6AE806FDE100EEDDF00829
:1051B9000EEE6AE806FDE1000EF86E000147EF39D0
:1051C900F0096E0904D8A4ECEF28F0EEEF28F0F10D
:1051D900EF28F0800E6DEC27F0020E0918D8A4F81C
:1051E900EF28F0FAEF28F013EF29F0C00E6DEC2745
:1051F900F013EF29F007C0F6FF08C0F7FFF86A07B8
:105209000EF76403D00800F55005D0F6CFE1FFF79B
:10521900CFE2FFE7509CEC26F0074A082A07C0F6C0
:10522900FF08C0F7FFF86A070EF76403D00800F516
:105239005005D0F6CFE1FFF7CFE2FFE7500009D8DC
:10524900A429EF29F02BEF29F0FFEF28F0120090A5
:105259000E076E7E0E086E010EE5EC28F07E0E0735
:105269006E7F0E086E020EE5EC28F0800E6DEC27BD
:10527900F0000E0D6E000E0C6EFF0E9CEC26F00C6D
:105289004A0D2A0DBE52EF29F00D5009E1100E0CFE
:105299005CD8A052EF29F054EF29F041EF29F0C072
:1052A9000E6DEC27F0000E0F6E000E0E6EFF0E9CB9
:1052B900EC26F00E4A0F2A0FBE6CEF29F00F5009A9
:1052C900E1100E0E5CD8A06CEF29F06EEF29F05BAF
:1052D900EF29F0150E0B6E4B0E0A6EBE0EE82EFE70
:1052E900D70A2EFCD70B2EFAD700D0120020EEE5F4
:1052F900F010EE0CF0040EDBCFE3FFE806FCE25DF4
:105309000E076E7E0E086E010EE5EC28F04C0E07B6
:105319006E7E0E086E020EE5EC28F00B0E0B6E2663
:105329000E0A6E5E0EE82EFED70A2EFCD70B2EFA59
:10533900D7000E926E7F0E836E808480868088806F
:105349008A1F0E0B6E710E0A6E1E0EE82EFED70A0C
:105359002EFCD70B2EFAD700D080948096809880A7
:105369009A5D0E076E7E0E086E010EE5EC28F03B85
:105379000E076E7E0E086E020EE5EC28F00B0E0B82
:105389006E260E0A6E5E0EE82EFED70A2EFCD70B8D
:105399002EFAD71200000E066E02BED8EF29F0D6FB
:1053A900EF29F0DEEF29F0016C021ED8B0022A01C4
:1053B9000E066E04BEE5EF29F0E3EF29F0E9EF29C7
:1053C900F0036C041ED8B0042A03500410D8B4F0BA
:1053D900EF29F0F2EF29F016EF2AF0010E056EFA27
:1053E900EF29F0D89003360436052A04AEFFEF29D9
:1053F900F001EF2AF0F6EF29F00350015C045002A6
:1054090058D8A00AEF2AF00CEF2AF010EF2AF0037F
:1054190050015E0450025AD89004320332052E011D
:10542900EF2AF00650D8B41CEF2AF01EEF2AF0221A
:10543900EF2AF0016C021ED8B0022A01C001F00265
:10544900C002F01200000E066E04BE30EF2AF02EE4
:10545900EF2AF036EF2AF0036C041ED8B0042A01B3
:105469000E066E02BE3DEF2AF03BEF2AF043EF2A0B
:10547900F0016C021ED8B0022A010E061A000E08AD
:105489006E000E076E03500410D8B44EEF2AF05088
:10549900EF2AF078EF2AF0010E056E58EF2AF0D8BE
:1054A9009003360436052A04AE5DEF2AF05FEF2A31
:1054B900F054EF2AF0D890073608360350015C04FF
:1054C900500258D8A06BEF2AF06DEF2AF072EF2A3C
:1054D900F00350015E0450025A0780D89004320349
:1054E90032052E5FEF2AF00650D8B47EEF2AF080FD
:1054F900EF2AF084EF2AF0076C081ED8B0082A07B3
:10550900C001F008C002F012000001E3A18FEF2AE8
:10551900F091EF2AF09BEF2AF013C00AF014C00BA8
:10552900F011C00CF012C00DF07AEC26F016BEA0F6
:10553900EF2AF0A2EF2AF0A8EF2AF015C01AF01608
:10554900C01BF0ACEF2AF0000E1B6E000E1A6E00A5
:105559000E196E000E186EBEEF2AF0000E026E20B4
:105569000E016E11C003F012C004F0ECEC2AF01821
:105579004A192A1A50185C1950800A176E1B508054
:105589000A1758D8A0CBEF2AF0CDEF2AF0B2EF2AAC
:10559900F00001E3B1D3EF2AF0D5EF2AF0DFEF2ACB
:1055A900F013C00AF014C00BF011C00CF012C00DBA
:1055B900F07AEC26F013C001F014C002F024EC26B6
:1055C900F01A500124116E1B500220126E120003B2
:1055D900500410D8B4F3EF2AF0F5EF2AF0FEEF2AC1
:1055E900F003500410D8A4FCEF2AF0FEEF2AF003D0
:1055F900EF2BF00150ABEC25F050EF2BF020EE042F
:10560900F00350D9260450DA22DE50DE10D8B41047
:10561900EF2BF012EF2BF02DEF2BF020EE04F0031F
:1056290050D9260450DA2210EE02F00350E1260484
:1056390050E222DE50E65CE650800A096EDE5080B8
:105649000A0958D8B02BEF2BF02DEF2BF050EF2B88
:10565900F020EE02F00350D9260450DA22DECF05FD
:10566900F0DDCF06F003C0D9FF04C0DAFFDECF07B3
:10567900F0DDCF08F005500724D96E06500820DA6E
:105689006E01C0DFFF20EE02F00350D9260450DA84
:1056990022DE2A000EDD221200000E136E010E1208
:1056A9006E12C001F013C002F0C4EC26F001C01262
:1056B900F002C013F09FEF2BF0290E076E7F0E0842
:1056C9006E010EE5EC28F04D0E076E7D0E086E0298
:1056D9000EE5EC28F081B274EF2BF076EF2BF05544
:1056E900EF2BF081A27BEF2BF07DEF2BF076EF2BE8
:1056F900F02CEC29F055EF2BF05E0E076E7D0E08AD
:105709006E010EE5EC28F0E70E076E7C0E086E02BE
:105719000EE5EC28F081B294EF2BF096EF2BF055C3
:10572900EF2BF081A29BEF2BF09DEF2BF096EF2B47
:10573900F0B5EF2BF012C010F013C011F0115000AA
:105749000AD8B4AAEF2BF051EF2BF01050010AD868
:10575900B461EF2BF0030AD8B481EF2BF051EF2B92
:10576900F0120022EE00F010EE60F0760EDBCFE3CF
:10577900FFE806FCE2000E0001D86F000ED76F1992
:10578900EF2CF0D7C001F0D8C002F0000E046E1162
:105799000E036EE8EC25F0600E0124076E000E0280
:1057A90020086E010EE5EC28F0D7C001F0D8C00240
:1057B900F0000E046E110E036EE8EC25F0110E01D7
:1057C90026000E0222600E0124076E000E02200838
:1057D9006E020EE5EC28F00B0E026EB80E016E0E8D
:1057E900EC26F00001D74BD82B070ED719D811D8C2
:1057F900A401EF2CF003EF2CF007EF2CF0000ED8EA
:105809006F000ED76F81B20CEF2CF00EEF2CF01950
:10581900EF2CF0000ED86F060ED76F81A217EF2C70
:10582900F019EF2CF012EF2CF00001D85109E10624
:105839000ED75DD8A023EF2CF025EF2CF0C6EF2B67
:03584900F012005A
:10584D0049484D2056657273616F20312E303020DE
:10585D00002A2030352F30372F32303231202A2098
:10586D002000446573656E766F6C7665646F723A71
:10587D002020004D617263656C6F2053696C7665F5
:10588D006972610049465253202D205465636E693B
:10589D00636F202000456C6574726F6E69636120C3
:1058AD002020202020005475726D61203230313956
:1058BD002F312020202000100348E8100348E81065
:1058CD000348E8930248E8DB0348E8100348E893EF
:1058DD000248E8DB0348E8100348E8DC0448E8DC4C
:1058ED000448E8DC0448E8260548E8DB0348E8E41A
:1058FD000248E8930248E8DB0348E8100348E87CD7
:10590D000648E8100348E8100348E87C0648E820FC
:10591D000648E8C80548E8740548E8260548E8C87B
:10592D000548E82A342B34316E3150D8A4A1EF2C20
:10593D00F0A3EF2CF0ADEF2CF0000E286E000E2929
:10594D006E000E2A6E000E2B6E1AEF2DF028C02C55
:10595D00F029C02DF02AC02EF02BC02FF0200EBD47
:10596D00EF2CF0D8902F322E322D322C32E82EB86B
:10597D00EF2CF02C50306E2A8EFF0E2816FF0E29BC
:10598D0016FF0E2A16000E2B16960E315E31BED462
:10599D00EF2CF0D2EF2CF0EAEF2CF03150800A977B
:1059AD000FD8B0DCEF2CF0DEEF2CF0E0EF2CF0A3F5
:1059BD00EF2CF0D8902B322A3229322832313EE0AA
:1059CD00EF2CF002EF2DF01F0E3164F0EF2CF0F202
:1059DD00EF2CF0FAEF2CF0A3EF2CF0D8902836290D
:1059ED00362A362B3631063150D8A400EF2DF00271
:1059FD00EF2DF0F4EF2CF03050D8B408EF2DF00A65
:105A0D00EF2DF012EF2DF02B1E2A1E291E286C00F3
:105A1D000E29222A222B2228C028F029C029F02A5B
:105A2D00C02AF02BC02BF01200000E0101A26F0056
:105A3D000EA36F560E076E7C0E086E010EE5EC2858
:105A4D00F09E0E076E7C0E086E020EE5EC28F0211E
:105A5D00EEA4F011EE00F0350EDBCFE3FFE806FC0F
:105A6D00E222EE77F011EE36F06B0EDBCFE3FFE8BE
:105A7D0006FCE2080ED56ED58EBBEC25F0AFEC25FD
:105A8D00F036C10FF037C110F0FBEC25F0320E40AF
:105A9D00EC27F088EF2DF0B3EC25F0270E026E10F9
:105AAD000E016ED7EC25F00101A22B000EA325D916
:105ABD006EDA6A010EDA22DE50A25DD8A069EF2DF2
:105ACD00F06BEF2DF088EF2DF0360EA36171EF2DF9
:105ADD00F073EF2DF074EF2DF0A32BA351020D36C3
:105AED000EF324D96E010EF420DA6EDECF0FF0DD49
:105AFD00CF10F0FBEC25F0320E40EC27F0000E013C
:105B0D0001A26F81B28DEF2DF08FEF2DF052EF2DA1
:105B1D00F081A294EF2DF096EF2DF08FEF2DF0E8A0
:105B2D000E106E480E0F6EFBEC25F0000E40EC27AC
:105B3D00F01200000E0A6E08BEA9EF2DF0A7EF2D92
:105B4D00F0B3EF2DF0081E071E061E056C000E06A5
:105B5D002207220822010E0A6E04BEBAEF2DF0B8FC
:105B6D00EF2DF0C4EF2DF0041E031E021E016C007C
:105B7D000E022203220422010E0A1A000E0B6E00E1
:105B8D000E0C6E000E0D6E000E0E6E0550061007FB
:105B9D00100810D8B4D5EF2DF0D7EF2DF00DEF2E56
:105BAD00F0010E096EE1EF2DF0D89005360636079F
:105BBD00360836092A08AEE6EF2DF0E8EF2DF0DBBA
:105BCD00EF2DF0D8900B360C360D360E36055001F4
:105BDD005C065002580750035808500458D8A0FAD4
:105BED00EF2DF0FCEF2DF005EF2EF00550015E06C8
:105BFD0050025A0750035A0850045A0B80D8900887
:105C0D0032073206320532092EE8EF2DF00A50D850
:105C1D00B413EF2EF015EF2EF01DEF2EF00E1E0D1E
:105C2D001E0C1E0B6C000E0C220D220E220BC00141
:105C3D00F00CC002F00DC003F00EC004F012000015
:105C4D000E0001876F010E866F86C001F087C002BE
:105C5D00F0C4EC26F001C086F002C087F095EF2E5F
:105C6D00F07F0E076E7E0E086E010EE5EC28F05CDF
:105C7D000E076E7F0E086E020EE5EC28F081B24A1B
:105C8D00EF2EF04CEF2EF02BEF2EF081A251EF2ED8
:105C9D00F053EF2EF04CEF2EF07BEC29F02BEF2E86
:105CAD00F06D0E076E7F0E086E010EE5EC28F04DBF
:105CBD000E076E7D0E086E020EE5EC28F081B26ABD
:105CCD00EF2EF06CEF2EF02BEF2EF0C1EC33F081B8
:105CDD00A273EF2EF075EF2EF06EEF2EF02BEF2E50
:105CED00F05E0E076E7D0E086E010EE5EC28F0E7F6
:105CFD000E076E7C0E086E020EE5EC28F081B28A5E
:105D0D00EF2EF08CEF2EF02BEF2EF081A291EF2ED7
:105D1D00F093EF2EF08CEF2EF0B0EF2EF086C084C6
:105D2D00F087C085F000018551000AD8B4A1EF2E8F
:105D3D00F026EF2EF08451010AD8B437EF2EF00380
:105D4D000AD8B457EF2EF0010AD8B477EF2EF0260B
:105D5D00EF2EF01200000E00018E6F010E8D6F8D73
:105D6D00C001F08EC002F0C4EC26F001C08DF0022F
:105D7D00C08EF022EF2FF0E60E076E7D0E086E013D
:105D8D000EE5EC28F0F70E076E7D0E086E020EE59F
:105D9D00EC28F081B2D5EF2EF0D7EF2EF0B6EF2E26
:105DAD00F081A2DCEF2EF0DEEF2EF0D7EF2EF0011A
:105DBD000E62EC31F0B6EF2EF0080E076E7E0E0877
:105DCD006E010EE5EC28F04D0E076E7D0E086E028D
:105DDD000EE5EC28F081B2F6EF2EF0F8EF2EF0B6CE
:105DED00EF2EF081A2FDEF2EF0FFEF2EF0F8EF2E4B
:105DFD00F0020E62EC31F0B6EF2EF05E0E076E7D06
:105E0D000E086E010EE5EC28F0E70E076E7C0E080D
:105E1D006E020EE5EC28F081B217EF2FF019EF2F7F
:105E2D00F0B6EF2EF081A21EEF2FF020EF2FF0191C
:105E3D00EF2FF03DEF2FF08DC08BF08EC08CF0006A
:105E4D00018C51000AD8B42EEF2FF0B1EF2EF08B4C
:105E5D0051010AD8B4C2EF2EF0030AD8B4E3EF2EE5
:105E6D00F0010AD8B404EF2FF0B1EF2EF0120000BC
:105E7D000E0001896F010E886F88C001F089C00284
:105E8D00F0C4EC26F001C088F002C089F0CFEF2FEE
:105E9D00F08F0E076E7F0E086E010EE5EC28F0A058
:105EAD000E076E7F0E086E020EE5EC28F081B262D1
:105EBD00EF2FF064EF2FF043EF2FF081A269EF2F5A
:105ECD00F06BEF2FF064EF2FF0000EB3EC35F043D5
:105EDD00EF2FF0B10E076E7F0E086E010EE5EC2868
:105EED00F02A0E076E7E0E086E020EE5EC28F0818C
:105EFD00B283EF2FF085EF2FF043EF2FF081A28AC1
:105F0D00EF2FF08CEF2FF085EF2FF0010EB3EC3566
:105F1D00F043EF2FF0190E076E7E0E086E010EE5A1
:105F2D00EC28F04D0E076E7D0E086E020EE5EC2886
:105F3D00F081B2A4EF2FF0A6EF2FF043EF2FF081F9
:105F4D00A2ABEF2FF0ADEF2FF0A6EF2FF0DBEC367D
:105F5D00F043EF2FF0680E076E7C0E086E010EE514
:105F6D00EC28F0E60E076E7C0E086E020EE5EC28AE
:105F7D00F081B2C4EF2FF0C6EF2FF043EF2FF08179
:105F8D00A2CBEF2FF0CDEF2FF0C6EF2FF0EEEF2FCE
:105F9D00F088C086F089C087F000018751000AD8CB
:105FAD00B4DBEF2FF03EEF2FF08651010AD8B44F3E
:105FBD00EF2FF0030AD8B470EF2FF0010AD8B49187
:105FCD00EF2FF0070AD8B4B1EF2FF03EEF2FF012FC
:105FDD0000000E126E08BEF8EF2FF0F6EF2FF00A4C
:105FED00EF30F0081E071E061E051E041E031E02BE
:105FFD001E016C000E022203220422052206220736
:10600D00220822010E126E10BE11EF30F00FEF308C
:10601D00F021EF30F0101E0F1E0E1E0D1E0C1E0B6C
:10602D001E0A1E096C000E0A220B220C220D220ED6
:10603D00220F22102209500A100B100C100D100EF9
:10604D00100F101010D8B42EEF30F030EF30F07874
:10605D00EF30F0010E116E3EEF30F0D89009360A98
:10606D00360B360C360D360E360F361036112A100D
:10607D00AE43EF30F045EF30F034EF30F009500122
:10608D005C0A5002580B5003580C5004580D500523
:10609D00580E5006580F50075810500858D8A05A8F
:1060AD00EF30F05CEF30F06CEF30F00950015E0A2C
:1060BD0050025A0B50035A0C50045A0D50055A0EEB
:1060CD0050065A0F50075A1050085AD89010320FD8
:1060DD00320E320D320C320B320A320932112E458C
:1060ED00EF30F01250D8B47EEF30F080EF30F090FA
:1060FD00EF30F0081E071E061E051E041E031E02AD
:10610D001E016C000E022203220422052206220724
:10611D0022082201C001F002C002F003C003F00406
:10612D00C004F005C005F006C006F007C007F00872
:10613D00C008F01200056EC2EF30F08084809680AA
:10614D0098809A17EF31F0809480868098809A1706
:10615D00EF31F0809480968088809A17EF31F0802F
:10616D009480968098808A17EF31F0809480968085
:10617D0098809A17EF31F00550036E046A045000B1
:10618D000AD8B4CCEF30F0BCEF30F00350010AD890
:10619D00B4A4EF30F0030AD8B4AAEF30F0010AD856
:1061AD00B4B0EF30F0070AD8B4B6EF30F0BCEF3032
:1061BD00F03F0E836E58EF31F0060E836E58EF31BF
:1061CD00F05B0E836E58EF31F04F0E836E58EF314A
:1061DD00F0660E836E58EF31F06D0E836E58EF3111
:1061ED00F07C0E836E58EF31F0070E836E58EF3151
:1061FD00F07F0E836E58EF31F0670E836E58EF31DE
:10620D00F0520E836E58EF31F0390E836E58EF3128
:10621D00F0630E836E58EF31F0000E836E58EF3140
:10622D00F00150036E046A0450000AD8B421EF3116
:10623D00F013EF31F00350000AD8B4DFEF30F00166
:10624D000AD8B4E3EF30F0030AD8B4E7EF30F00129
:10625D000AD8B4EBEF30F0070AD8B4EFEF30F00105
:10626D000AD8B4F3EF30F0030AD8B4F7EF30F001E9
:10627D000AD8B4FBEF30F00F0AD8B4FFEF30F001BD
:10628D000AD8B403EF31F0F40AD8B407EF31F003B4
:10629D000AD8B40BEF31F0010AD8B40FEF31F01377
:1062AD00EF31F00204D8A45EEF31F060EF31F06110
:1062BD00EF31F0838E120000018A6F000E946E0094
:1062CD000E966E000E826E000E846E6A0E5A6E0071
:1062DD000E5B6EC20E5C6E7F0E5D6EECEC26F014E6
:1062ED00EF32F081B47DEF31F07FEF31F096EF3189
:1062FD00F0828081A485EF31F087EF31F080EF31AE
:10630D00F07A0E5A6E000E5B6EE40E5C6E7F0E5DC3
:10631D006E8AC05EF05F6AECEC26F006EF32F0811B
:10632D00B09BEF31F09DEF31F006EF32F0829081AE
:10633D00A0A3EF31F0A5EF31F09EEF31F07A0E5AB8
:10634D006E000E5B6EF10E5C6E7F0E5D6E8AC05E32
:10635D00F05F6AECEC26F006EF32F081B4B9EF3164
:10636D00F0BBEF31F0D2EF31F0848081A4C1EF3179
:10637D00F0C3EF31F0BCEF31F07A0E5A6E000E5BC8
:10638D006EE40E5C6E7F0E5D6E8AC05EF05F6AEC31
:10639D00EC26F006EF32F081B0D7EF31F0D9EF31C6
:1063AD00F006EF32F0849081A0DFEF31F0E1EF31B4
:1063BD00F0DAEF31F07A0E5A6E000E5B6EF10E5C74
:1063CD006E7F0E5D6E8AC05EF05F6AECEC26F006A5
:1063DD00EF32F000018A51686F696B6951000AD87C
:1063ED00B4FBEF31F006EF32F06851010AD8B47802
:1063FD00EF31F0030AD8B4B4EF31F006EF32F07A92
:10640D000E076E000E086E010EE5EC28F06A0E0701
:10641D006E000E086E020EE5EC28F081B219EF3217
:10642D00F01BEF32F0F0EF31F081A220EF32F022CD
:10643D00EF32F01BEF32F01200000E126E10BE2C78
:10644D00EF32F02AEF32F03EEF32F0101E0F1E0E3B
:10645D001E0D1E0C1E0B1E0A1E096C000E0A220BB1
:10646D00220C220D220E220F221022010E126E0876
:10647D00BE45EF32F043EF32F057EF32F0081E0712
:10648D001E061E051E041E031E021E016C000E02BA
:10649D0022032204220522062207220822010E12BF
:1064AD001A20EE13F0070EDE6AE806FDE209500A27
:1064BD00100B100C100D100E100F101010D8B46A18
:1064CD00EF32F06CEF32F0BEEF32F0010E116E7A5A
:1064DD00EF32F0D89009360A360B360C360D360EE3
:1064ED00360F361036112A10AE7FEF32F081EF32B3
:1064FD00F070EF32F0D89013361436153616361775
:10650D0036183619361A360950015C0A5002580BE6
:10651D005003580C5004580D5005580E5006580F86
:10652D0050075810500858D8A09FEF32F0A1EF3205
:10653D00F0B2EF32F00950015E0A50025A0B5003CF
:10654D005A0C50045A0D50055A0E50065A0F50074A
:10655D005A1050085A1380D89010320F320E320D47
:10656D00320C320B320A320932112E81EF32F01217
:10657D0050D8B4C4EF32F0C6EF32F0D6EF32F01A85
:10658D001E191E181E171E161E151E141E136C0026
:10659D000E1422152216221722182219221A22133E
:1065AD00C001F014C002F015C003F016C004F017BE
:1065BD00C005F018C006F019C007F01AC008F01297
:1065CD0000096E0950D8B4EEEF32F0F0EF32F01250
:1065DD00EF33F004BEF7EF32F0F5EF32F012EF3398
:1065ED00F001C005F002C006F003C007F004C008BA
:1065FD00F0051E061E071E081E052A000E062207A0
:10660D0022082205C00BF006C00CF007C00DF008E3
:10661D00C00EF01AEF33F001C00BF002C00CF00306
:10662D00C00DF004C00EF00150021003100410D87C
:10663D00A423EF33F025EF33F02FEF33F0000E01ED
:10664D006E000E026E000E036E000E046EC0EF3370
:10665D00F0960E0A6E39EF33F00A2AD8900E320DED
:10666D00320C320B32000E0B14056E000E0C14069C
:10667D006E000E0D14076EFE0E0E14086E055006FC
:10668D001007100810D8A44EEF33F050EF33F0334D
:10669D00EF33F05EEF33F00A2A010E0B26000E0CDD
:1066AD00220D220E22D8900E320D320C320B3200FA
:1066BD000E0B14056E000E0C14066E000E0D140755
:1066CD006EFF0E0E14086E0550061007100810D838
:1066DD00A473EF33F075EF33F052EF33F07DEF33FA
:1066ED00F00A06D8900B360C360D360E360DBE82DE
:1066FD00EF33F084EF33F08CEF33F0020E0A608A43
:10670D00EF33F08CEF33F077EF33F00AB091EF33D6
:10671D00F093EF33F094EF33F00D9ED8900A320AD8
:10672D00C005F0066A076A086A05C008F0076A0620
:10673D006A056A05500B1206500C1207500D12080F
:10674D00500E120950D8B4AEEF33F0B0EF33F0B8AD
:10675D00EF33F004BEB7EF33F0B5EF33F0B8EF33EE
:10676D00F00E8E0BC001F00CC002F00DC003F00E48
:10677D00C004F01200D30E076E7F0E086E010EE5F9
:10678D00EC28F07E0E076E7F0E086E020EE5EC28EB
:10679D00F00B0E0001696F260E686F5D0EE82EFE80
:1067AD00D7682FFCD7692FFAD700D0000E806E0066
:1067BD000E836E000E926E000E956E0F0EC16E273B
:1067CD000E0001836F0F0E826F82C001F083C00235
:1067DD00F0030E046EE80E036E6AEC28F001500013
:1067ED00017F6F82C001F083C002F0030E046EE8DA
:1067FD000E036ECCEC27F001C080F002C081F0805A
:10680D00C001F081C002F0000E046E640E036E6ACA
:10681D00EC28F0015000017E6F80C001F081C002B4
:10682D00F0000E046E640E036ECCEC27F001C080F8
:10683D00F002C081F080C001F081C002F0000E04B2
:10684D006E0A0E036E6AEC28F0015000017D6F8216
:10685D00C001F083C002F0000E046E0A0E036ECC70
:10686D00EC27F0015000017C6F6A0E5A6E000E5B32
:10687D006E430E5C6E7C0E5D6E82C05EF083C05FFB
:10688D00F0ECEC26F06A0E076E000E086E020EE5B7
:10689D00EC28F0000E00017B6F000E7A6F7FC001B7
:1068AD00F0000E026E010EA1EC30F02F0E0001680B
:1068BD006FBF0EE82EFED7682FFCD700D07EC0012B
:1068CD00F0000E026E020EA1EC30F02F0E000168EA
:1068DD006FBF0EE82EFED7682FFCD700D07DC0010C
:1068ED00F0000E026E030EA1EC30F02F0E000168C9
:1068FD006FBF0EE82EFED7682FFCD700D07CC001ED
:10690D00F0000E026E040EA1EC30F02F0E000168A7
:10691D006FBF0EE82EFED7682FFCD700D0809A00EF
:10692D00017A4B7B2B8207D8A0830782518311D824
:10693D00A4A3EF34F0A5EF34F0A9EF34F0270E83C4
:10694D006F0F0E826F81B2AEEF34F0B0EF34F0EB1B
:10695D00EF33F081A2B5EF34F0B7EF34F0B0EF3490
:10696D00F01200000E00017C6F010E7B6F7BC001E9
:10697D00F07CC002F0C4EC26F001C07BF002C07CBC
:10698D00F08BEF35F06E0E076E7E0E086E010EE584
:10699D00EC28F0D50E076E7D0E086E020EE5EC2884
:1069AD00F081B2DCEF34F0DEEF34F0BDEF34F08186
:1069BD00A2E3EF34F0E5EF34F0DEEF34F01BEC2D15
:1069CD00F0BDEF34F0D40E076E7E0E086E010EE5AD
:1069DD00EC28F0B20E076E7E0E086E020EE5EC2866
:1069ED00F081B2FCEF34F0FEEF34F0BDEF34F08106
:1069FD00A203EF35F005EF35F0FEEF34F0190EFE82
:106A0D00EC27F0BDEF34F0C30E076E7E0E086E015D
:106A1D000EE5EC28F0E50E076E7E0E086E020EE513
:106A2D00EC28F081B21DEF35F01FEF35F0BDEF34DE
:106A3D00F081A224EF35F026EF35F01FEF35F0325F
:106A4D000EFEEC27F0BDEF34F0F60E076E7E0E084D
:106A5D006E010EE5EC28F0070E076E7F0E086E0234
:106A6D000EE5EC28F081B23EEF35F040EF35F0BD8C
:106A7D00EF34F081A245EF35F047EF35F040EF35BB
:106A8D00F04B0EFEEC27F0BDEF34F0180E076E7FC5
:106A9D000E086E010EE5EC28F04D0E076E7D0E080A
:106AAD006E020EE5EC28F081B25FEF35F061EF3547
:106ABD00F0BDEF34F081A266EF35F068EF35F0618F
:106ACD00EF35F0640EFEEC27F0BDEF34F05E0E07EF
:106ADD006E7D0E086E010EE5EC28F0E70E076E7C5C
:106AED000E086E020EE5EC28F081B280EF35F082D3
:106AFD00EF35F0BDEF34F081A287EF35F089EF353A
:106B0D00F082EF35F0B2EF35F07BC079F07CC07AD2
:106B1D00F000017A51000AD8B497EF35F0B8EF3490
:106B2D00F07951010AD8B4C9EF34F0030AD8B4E9A9
:106B3D00EF34F0010AD8B40AEF35F0070AD8B42BB8
:106B4D00EF35F0010AD8B44CEF35F0030AD8B46D27
:106B5D00EF35F0B8EF34F012000001816F000E0038
:106B6D00017C6F000E7B6F690E5A6E000E5B6E8C92
:106B7D000E5C6E7C0E5D6E010E81255E6E5F6A0091
:106B8D000E5F22ECEC26F0690E076E000E086E010A
:106B9D000EE5EC28F09E0E076E7C0E086E020EE5DB
:106BAD00EC28F081C079F000017A6B000E806E0048
:106BBD000E836E030E926E000E956E810EC06E0BDF
:106BCD000EC16E010EC26EAFEC25F0BBEC25F003CD
:106BDD000E106EE80E0F6EFBEC25F01A0E0001681C
:106BED006FF80EE82EFED7682FFCD700F0C2960086
:106BFD000179B102D0C29401D0C284C282C2B20A5C
:106C0D00EF36F00CEF36F005EF36F0C3CF84F0C45D
:106C1D00CF85F0000E136E000E146EC80E156E3D6E
:106C2D000E166E84C001F085C002F0036A046A007E
:106C3D000EE7EC32F001C00FF002C010F003C011EE
:106C4D00F004C012F00CEC3CF00FC028F010C0297D
:106C5D00F011C02AF012C02BF098EC2CF028C08453
:106C6D00F029C085F00001845134EC28F084C00176
:106C7D00F085C002F0000E046E640E036E6AEC28FF
:106C8D00F0015000017D6F84C001F085C002F0005D
:106C9D000E046E640E036ECCEC27F001C07BF00287
:106CAD00C07CF07BC001F07CC002F0000E046E0AC7
:106CBD000E036E6AEC28F0015000017E6F84C00156
:106CCD00F085C002F0000E046E0A0E036ECCEC27A8
:106CDD00F0015000017F6FFD0E806F000E836F007D
:106CED000E826FC1EF36F080C001F0000E026E040F
:106CFD000EA1EC30F00B0E0001686F620EE82EFE57
:106D0D00D7682FFCD700F07FC001F0000E026E0394
:106D1D000EA1EC30F00B0E0001686F620EE82EFE36
:106D2D00D7682FFCD700F07EC001F0000E026E0276
:106D3D000EA1EC30F00B0E0001686F620EE82EFE16
:106D4D00D7682FFCD700F07DC001F0000E026E0158
:106D5D000EA1EC30F00B0E0001686F620EE82EFEF6
:106D6D00D7682FFCD700F0010E00018225826F003D
:106D7D000E8321836F835109E1020E825DD8A0CA73
:106D8D00EF36F0CCEF36F07AEF36F081B2D1EF3648
:106D9D00F0D3EF36F0FDEF35F081A2D8EF36F0DA13
:106DAD00EF36F0D3EF36F01200000E0001826F01C6
:106DBD000E816F000E806E000E836E000E926E00BF
:106DCD000E956EAFEC25F0BBEC25F0030E106EE8C2
:106DDD000E0F6EFBEC25F01A0E0001686FF80EE831
:106DED002EFED7682FFCD700F0690E5A6E000E5B91
:106DFD006EB00E5C6E7C0E5D6E81C05EF082C05F0B
:106E0D00F0ECEC26F0690E076E000E086E010EE533
:106E1D00EC28F09E0E076E7C0E086E020EE5EC2837
:106E2D00F0000E016E000E026E050EA1EC30F000AA
:106E3D0001815134EC28F081C001F082C002F000D4
:106E4D000E046E640E036E27EC2AF0015000017BD8
:106E5D006F81C001F082C002F0000E046E640E035B
:106E6D006ECFEC29F001C079F002C07AF079C00143
:106E7D00F07AC002F0000E046E0A0E036E6AEC2862
:106E8D00F0015000017C6F81C001F082C002F00062
:106E9D000E046E0A0E036ECFEC29F0015000017D39
:106EAD006FFD0E7E6F000E806F000E7F6FADEF37A2
:106EBD00F07EC001F0010E026E040EA1EC30F01553
:106ECD000E0001686FC60EE82EFED7682FFCD700A6
:106EDD00F07DC001F0000E026E030EA1EC30F01536
:106EED000E0001686FC60EE82EFED7682FFCD70086
:106EFD00F07CC001F0000E026E020EA1EC30F01518
:106F0D000E0001686FC60EE82EFED7682FFCD70065
:106F1D00F07BC001F0000E026E010EA1EC30F015F9
:106F2D000E0001686FC60EE82EFED7682FFCD70045
:106F3D00F0000E016E000E026E070EA1EC30F00196
:106F4D000E00017F257F6F000E8021806F8051091B
:106F5D00E1020E7F5DD8A0B6EF37F0B8EF37F05FE6
:106F6D00EF37F082BFC3EF37F0825108E18105D8CA
:106F7D00A0C3EF37F0C5EF37F0D9EF37F081B0CAC6
:106F8D00EF37F0CCEF37F0D9EF37F081A0D1EF37F5
:106F9D00F0D3EF37F0CCEF37F000018107D8A082A6
:106FAD0007F8EF37F082BFE7EF37F0825107E16462
:106FBD000E815DD8B0E5EF37F0E7EF37F0F8EF373A
:106FCD00F081B4ECEF37F0EEEF37F0F8EF37F081FA
:106FDD00A4F3EF37F0F5EF37F0EEEF37F000018166
:106FED004B822B81B2FDEF37F0FFEF37F0FBEF3621
:106FFD00F081A204EF38F006EF38F0FFEF37F00024
:10700D000E34EC28F0120042C0D9FF43C0DAFFDE87
:10701D00CFF6FFDDCFF7FF0800F550250AD8A41AEB
:10702D00EF38F01CEF38F02BEF39F042C0D9FF43A9
:10703D00C0DAFFDE2A000EDD22000E0001E06F0037
:10704D000EDF6FDFC0E3F0E0C0E4F0E169E269005C
:10705D000E516E000E506E7FEF38F00001E381424D
:10706D00C0D9FF43C0DAFFDE2A000EDD227FEF38E4
:10707D00F00001E38336EF38F00001E38536EF3899
:10708D00F00001E38736EF38F00001E38936EF3881
:10709D00F0000E516E010E506E7FEF38F042C0D9E8
:1070AD00FF43C0DAFFDECFF6FFDDCFF7FF0800F5B7
:1070BD0050466E476A4750000AD8B468EF38F04F13
:1070CD00EF38F04650200AD8B447EF38F0030AD80D
:1070DD00B44BEF38F0080AD8B443EF38F0060AD8AD
:1070ED00B434EF38F01D0AD8B43FEF38F04FEF3815
:1070FD00F050505110D8B486EF38F088EF38F05575
:10710D00EF38F00001E3A18EEF38F090EF38F091F9
:10711D00EF38F0E39342C0D9FF43C0DAFFDECFF67C
:10712D00FFDDCFF7FF0800F550640AD8B4A1EF38A2
:10713D00F0A3EF38F0B5EF38F042C0D9FF43C0DA15
:10714D00FFDECFF6FFDDCFF7FF0800F550690AD857
:10715D00A4B3EF38F0B5EF38F0F5EF38F042C0D901
:10716D00FF43C0DAFFDE2A000EDD2244C0D9FF4501
:10717D00C0DAFFDFCF46F0020EDE26DFCF47F0008C
:10718D000EDD2246C0D9FF47C0DAFFDECF48F0DD65
:10719D00CF49F0000E49BEFF0E4A6E4B6E4C6E4D40
:1071AD006E4E6E4F6E40C01CF041C01DF048C01EAB
:1071BD00F049C01FF04AC020F04BC021F04CC02256
:1071CD00F04DC023F04EC024F04FC025F09AEC3A9C
:1071DD00F01CC040F01DC041F046EF39F042C0D95F
:1071ED00FF43C0DAFFDECFF6FFDDCFF7FF0800F576
:1071FD0050250AD8A405EF39F007EF39F01EEF3905
:10720D00F042C0D9FF43C0DAFFDE2A000EDD2200B6
:10721D000E026E250E016E40C003F041C004F0EC6D
:10722D00EC2AF0000E416E010E406E46EF39F04231
:10723D00C0D9FF43C0DAFFDE2A000EDD22000E4169
:10724D006E000E406E46EF39F042C0D9FF43C0DAF2
:10725D00FFDECFF6FFDDCFF7FF0800F550016E0220
:10726D006A40C003F041C004F0ECEC2AF042C0D9F2
:10727D00FF43C0DAFFDE2A000EDD2218EF39F012CF
:10728D0000C6EC25F0000E0001DC6F010EDB6FA1D6
:10729D000E076E7E0E086E010EE5EC28F03C0E0713
:1072AD006E7D0E086E020EE5EC28F0020E026EBC2D
:1072BD000E016E0EEC26F0D40E076E7C0E086E01DC
:1072CD000EE5EC28F07A0E076E7C0E086E020EE5C8
:1072DD00EC28F0020E026EBC0E016E0EEC26F08153
:1072ED00B07BEF39F07DEF39F089EF39F00001DB3C
:1072FD004BDC2B81A085EF39F087EF39F080EF392A
:10730D00F069EF3AF081B48EEF39F090EF39F06912
:10731D00EF3AF00001DB07D8A0DC0781A499EF3923
:10732D00F09BEF39F094EF39F069EF3AF04B0E071F
:10733D006E7F0E086E010EE5EC28F0F80E076E7CE0
:10734D000E086E020EE5EC28F081B2B0EF39F0B206
:10735D00EF39F076EF39F081A2B7EF39F0B9EF39A7
:10736D00F0B2EF39F026EC2EF076EF39F0090E077A
:10737D006E7D0E086E010EE5EC28F0910E076E7D08
:10738D000E086E020EE5EC28F081B2D0EF39F0D286
:10739D00EF39F076EF39F081A2D7EF39F0D9EF3927
:1073AD00F0D2EF39F051EC2BF076EF39F0A20E0759
:1073BD006E7D0E086E010EE5EC28F06F0E076E7DEA
:1073CD000E086E020EE5EC28F081B2F0EF39F0F206
:1073DD00EF39F076EF39F081A2F7EF39F0F9EF39A7
:1073ED00F0F2EF39F0B8EC34F076EF39F0800E07AB
:1073FD006E7D0E086E010EE5EC28F0B30E076E7D66
:10740D000E086E020EE5EC28F081B210EF3AF01284
:10741D00EF3AF076EF39F081A217EF3AF019EF3A23
:10742D00F012EF3AF03EEC2FF076EF39F0C40E0784
:10743D006E7D0E086E010EE5EC28F01A0E076E7DBE
:10744D000E086E020EE5EC28F081B230EF3AF03204
:10745D00EF3AF076EF39F081A237EF3AF039EF3AA3
:10746D00F032EF3AF0B1EC2EF076EF39F02B0E074B
:10747D006E7D0E086E010EE5EC28F03A0E076E7F5C
:10748D000E086E020EE5EC28F081B250EF3AF05284
:10749D00EF3AF076EF39F081A257EF3AF059EF3A23
:1074AD00F052EF3AF0B6EC2BF076EF39F0000EDC3F
:1074BD006F010EDB6F76EF39F0000EDC6F060EDB21
:1074CD006F76EF39F0DBC0D9F0DCC0DAF00001DA0D
:1074DD0051000AD8B475EF3AF076EF39F0D9510072
:1074ED000AD8B463EF3AF0010AD8B49DEF39F0032E
:1074FD000AD8B4BDEF39F0010AD8B4DDEF39F00781
:10750D000AD8B4FDEF39F0010AD8B41DEF3AF003F3
:10751D000AD8B43DEF3AF0010AD8B45DEF3AF076EF
:10752D00EF39F000EF00F01EC036F01FC037F0202D
:10753D00C038F021C039F022C03AF023C03BF0240E
:10754D00C03CF025C03DF03DBEAFEF3AF0B2EF3A92
:10755D00F0010EB3EF3AF0000E346E356A3450354B
:10756D0010D8B4BCEF3AF0BEEF3AF0CEEF3AF03DA2
:10757D001E3C1E3B1E3A1E391E381E371E366C0031
:10758D000E3722382239223A223B223C223D22005C
:10759D0001E2BFD4EF3AF0D6EF3AF0D7EF3AF0E38D
:1075AD0093E2BFE4EF3AF0E25106E1E105D8B0E233
:1075BD00EF3AF0E4EF3AF0EAEF3AF0000E316E01F7
:1075CD000E306EEEEF3AF0E1C030F0E2C031F0DF98
:1075DD00C032F0E0C033F034503510D8A4F9EF3A92
:1075ED00F0FBEF3AF002EF3BF0E3A500EF3BF002CA
:1075FD00EF3BF005EF3BF03206D8A03306000E3F0F
:10760D006E1F0E3E6E000E0101F96F8AEF3BF03ECC
:10761D0006D8A03F06DA0E3E24D96E010E3F20DAC1
:10762D006E36C001F037C002F038C003F039C00427
:10763D00F03AC005F03BC006F03CC007F03DC00875
:10764D00F00A0E096E000E0A6E000E0B6E000E0C87
:10765D006E000E0D6E000E0E6E000E0F6E000E10F3
:10766D006EEFEC2FF001C026F002C027F003C0280A
:10767D00F004C029F005C02AF006C02BF007C02C7D
:10768D00F008C02DF026C013F028C014F05AEC26D7
:10769D00F01350300FDF6E3006D8A031063206D809
:1076AD00A0330636C001F037C002F038C003F03900
:1076BD00C004F03AC005F03BC006F03CC007F03DF9
:1076CD00C008F00A0E096E000E0A6E000E0B6E0059
:1076DD000E0C6E000E0D6E000E0E6E000E0F6E0077
:1076ED000E106E23EC32F001C036F002C037F003FD
:1076FD00C038F004C039F005C03AF006C03BF007C1
:10770D00C03CF008C03DF03FBE95EF3BF03F500848
:10771D00E13E04D8A095EF3BF097EF3BF0C8EF3B6F
:10772D00F036503710381039103A103B103C103DE0
:10773D0010D8A4A4EF3BF0A6EF3BF00EEF3BF031D9
:10774D00BEB3EF3BF0315006E13004D8B0B1EF3BA2
:10775D00F0B3EF3BF00EEF3BF033BEBEEF3BF0333B
:10776D005008E13204D8A0BEEF3BF0C0EF3BF0C8AB
:10777D00EF3BF00001E3B3C6EF3BF0C8EF3BF00E7B
:10778D00EF3BF034503510D8A4CFEF3BF0D1EF3BA9
:10779D00F0D9EF3BF00001E3A5D7EF3BF0D9EF3B7C
:1077AD00F0F7EF3BF03E06D8A03F0634503510D829
:1077BD00A4E3EF3BF0E5EF3BF0EBEF3BF0000E2FDA
:1077CD006E2B0E2E6EEFEF3BF0000E2F6E2D0E2E4C
:1077DD006EDA0E3E24D96E010E3F20DA6E2EC0DF1A
:1077ED00FF1CC011F01DC012F0DA0E3E24136E0105
:1077FD000E3F20146E32C015F033C016F089EC2AFE
:10780D00F011C01CF012C01DF012001250800B1BA5
:10781D006E12501224216E11AE17EF3CF019EF3C91
:10782D00F01AEF3CF021802150D8B420EF3CF0222B
:10783D00EF3CF035EF3CF02128D8A428EF3CF02A9E
:10784D00EF3CF032EF3CF0000E0F6E000E106E00AC
:10785D000E116E000E126E118E3DEF3CF0000E0FEC
:10786D006E000E106E000E116E000E126E16508010
:10787D000B1B1A16501624206E15AE48EF3CF04A1D
:10788D00EF3CF04BEF3CF020802050D8B451EF3C52
:10789D00F053EF3CF066EF3CF02028D8A459EF3CB4
:1078AD00F05BEF3CF063EF3CF0000E136E000E1436
:1078BD006E000E156E000E166E158E6EEF3CF000FE
:1078CD000E136E000E146E000E156E000E166E2049
:1078DD0050D8B474EF3CF076EF3CF07EEF3CF021E5
:1078ED0050D8A47CEF3CF07EEF3CF088EF3CF000EC
:1078FD000E0F6E000E106E000E116E000E126E2029
:10790D00EF3EF015500F02F3CF26F0F4CF27F026FF
:10791D00501C6E1D6A1E6A1F6A2750226E236A2430
:10792D006A256A14501002F3CF26F0F4CF27F02603
:10793D00501C26000E1D221E221F2227502226001B
:10794D000E23222422252213501102F3CF26F0F408
:10795D00CF27F026501C26000E1D221E221F222787
:10796D00502226000E2322242225221EC01FF01D88
:10797D00C01EF01CC01DF01C6A13501002F3CF2660
:10798D00F0F4CF27F026501C2627501D22000E1E86
:10799D0022000E1F2214500F02F3CF26F0F4CF2732
:1079AD00F026501C2627501D22000E1E22000E1FF1
:1079BD00221EC01FF01DC01EF01CC01DF01C6A133E
:1079CD00500F02F3CF26F0F4CF27F026501C2627B8
:1079DD00501D22000E1E22000E1F2215501002F304
:1079ED00CF26F0F4CF27F026502226275023220051
:1079FD000E2422000E252214501102F3CF26F0F48E
:107A0D00CF27F02650222627502322000E242200B5
:107A1D000E252215501102F3CF26F0F4CF27F026B4
:107A2D0050176E2750186E196A1A6A19C01AF01875
:107A3D00C019F017C018F0176A17502226185023D6
:107A4D0022195024221A5025221CC017F01DC018CF
:107A5D00F01EC019F01FC01AF0190E3BEF3DF0D803
:107A6D00901A32193218321732E82E36EF3DF017D0
:107A7D0050222618502322195024221A5025221E36
:107A8D00C01FF01DC01EF01CC01DF01C6A2050212F
:107A9D00C017F0186A1726000E1822820E1724261A
:107AAD006EFF0E1820276E71EF3DF0D89022362311
:107ABD0036243625361FAE66EF3DF068EF3DF06992
:107ACD00EF3DF02280D8901C361D361E361F36260F
:107ADD0006D8A0270624AE76EF3DF078EF3DF05C9A
:107AED00EF3DF0000E206E1FAE7FEF3DF081EF3DBC
:107AFD00F0A5EF3DF0FF0E1C14176EFF0E1D1418B0
:107B0D006EFF0E1E14196E7F0E1F141A6E1750186D
:107B1D001019101A10D8B496EF3DF098EF3DF09C67
:107B2D00EF3DF0010E206EA5EF3DF022A0A1EF3D3F
:107B3D00F0A3EF3DF0A5EF3DF098EF3DF02050D8CC
:107B4D00B4ABEF3DF0ADEF3DF0D1EF3DF0010E22C6
:107B5D0026000E23222422252225A0B8EF3DF0BABF
:107B6D00EF3DF0D1EF3DF022C017F023C018F02407
:107B7D00C019F025C01AF01A341A321932183217FA
:107B8D003217C022F018C023F019C024F01AC025F6
:107B9D00F0264A272A27BEDCEF3DF0275008E126C4
:107BAD0028D8A0DCEF3DF0DEEF3DF0E8EF3DF00032
:107BBD000E226E000E236E800E246E7F0E256E1625
:107BCD00EF3EF027BEF5EF3DF0275006E12604D835
:107BDD00B0F3EF3DF0F5EF3DF001EF3EF0000E227A
:107BED006E000E236E000E246E000E256E000E1B11
:107BFD006E16EF3EF026C021F0FF0E2216FF0E236B
:107C0D00167F0E2416000E251621A010EF3EF01241
:107C1D00EF3EF013EF3EF0248ED8902130256E1BF1
:107C2D0050251222C00FF023C010F024C011F025F2
:107C3D00C012F01200004465202530303030642031
:107C4D006120203020202020004D494449206F6EB6
:107C5D0020202020202020202020003E566F6C74F4
:107C6D006172202020202020202020200020534938
:107C7D005354454D4120202020202020202000500D
:107C8D006F74656E632E2020256420202020202017
:107C9D000052423120702F564F4C5441522020201B
:107CAD00202000506F74656E632E202025642525DD
:107CBD0020202020003E50574D20256425252020D2
:107CCD004F4E20202020002042454D2056494E4445
:107CDD004F20414F20202020005F5F5F5F5F5F5F7F
:107CED005F5F5F5F5F5F5F5F5F5F00204C434420BE
:107CFD002020202020202020202020003E4C434406
:107D0D002020202020202020202020200020536F04
:107D1D0062726520202020202020202020003E534C
:107D2D006F6272652020202020202020202000203E
:107D3D0020204946525320202020202020202000A2
:107D4D0020566F6C7461722020202020202020206E
:107D5D00003E566F6C746172202020202020202060
:107D6D00200020436F6F6C65722020202020202082
:107D7D002020003E436F6F6C657220202020202054
:107D8D00202020002042757A7A6572202020202044
:107D9D0020202020003E42757A7A65722020202016
:107DAD002020202020002052656C61797320202036
:107DBD00202020202020003E52656C617973202008
:107DCD0020202020202020002050574D2032352506
:107DDD002020202020202020003E52656C6179203B
:107DED00312020202020202020002052656C617938
:107DFD0020322020202020202020003E52656C6162
:107E0D007920322020202020202020003E52423296
:107E1D002D205242302B20202020202000205242A5
:107E2D00322B205242302D20202020202000507255
:107E3D006F6E746F2E2E2E2E2020202020200041BC
:107E4D006775617264652E2E2E2020202020200063
:107E5D005465737465203838383820202020202050
:107E6D00003E4D696E69204D494449202020202057
:107E7D0020003E5465737465203838383820202032
:107E8D00202000546573746520646F204C4344209A
:107E9D0020202000202020454C4554524F4E494370
:107EAD0041202020002050574D2035302520204FD7
:107EBD006666202020003E50574D2035302520206D
:107ECD004F6666202020003E50574D20323525202C
:107EDD00204F6666202020002050574D2037352535
:107EED0020204F6666202020003E50574D2037350C
:107EFD002520204F6666202020002050574D203130
:107F0D00303025204F6666202020003E50574D20F2
:107F1D0031303025204F6666202020003E496E69A5
:107F2D006369617220546573746520200020446973
:107F3D0073706C61792037205365672020003E44B3
:107F4D006973706C6179203720536567202000209C
:107F5D00436F6E74617220393939392D3E302000EE
:107F6D003E436F6E74617220393939392D3E3020A0
:107F7D0000524231207061726120766F6C746172B3
:107F8D0020003E506F74656E63696F6D6574726F1E
:107F9D0020310020506F74656E63696F6D6574726A
:107FAD006F2032003E506F74656E63696F6D65743E
:107FBD00726F2032005242323A204F4E20524230E0
:107FCD003A204F464600446973706C617920656DA7
:107FDD002074657374650052656C61792025642089
:107FED004F4E200052656C6179202564204F464626
:027FFD00000082
:020000040020DA
:08000000FFFFFFFFFFFFFFFF00
:020000040030CA
:0E000000000C1F1EFF8385FF0FC00FE00F4096
:00000001FF
